:020000040000FA
:2000000000500020050F0000F9DE0000ED0E0000FBDE0000FBDE0000FBDE000000000000FF
:20002000000000000000000000000000FBDE0000FBDE000000000000FBDE0000FBDE00005C
:200040001D390000FBDE000005BC0000FBDE0000392E0000D1340000FBDE0000FBDE0000B9
:20006000FBDE000025BC0000FBDE0000FBDE0000FBDE0000FBDE0000FBDE0000FBDE0000B0
:20008000FBDE0000FBDE0000FBDE0000FBDE0000FBDE0000FBDE0000FBDE0000FBDE000098
:2000A000FBDE0000FBDE0000FBDE0000FBDE0000FBDE0000FBDE0000FBDE0000FBDE000078
:2000C000FBDE0000FBDE0000F7B5254B1B689B073DD50020452102F045FD01200DF106013B
:2000E00002220FF05BF870B300200DF1060102220FF054F838B3BDF8064064BAADF80440E6
:20010000A4B2200B0CF0A8FB0BF04AFF0646C4F30B000F460CF0B0FB0FA3D3E90023044696
:200120000D46304639460CF00DFC02460B46204629460CF007FC0CF09FFE0A490CF0FAFF24
:200140000DF048F905E001A802210FF034F84FF0004003B0F0BD00BF7B14AE47E17A843F45
:20016000180800200000C84208B51D4A03461268032A2BD1421E012A28D81A4A1A49012BA7
:200180001288088810D110B20CF076FB0022174B0CF0D8FB10A3D3E900230CF0D3FB002254
:2001A000134B0CF01BFA09E00CF056FB00220F4B0CF0C8FB00220F4B0CF0C4FB0CF05CFED2
:2001C0000D490CF0B7FF0DF005F908BD4FF0004008BD00BFAFF300800000000000A06440EE
:2001E0003C080020D61C0020D81C00200000F03E00004440000059400000C8420000000020
:2002000070B5514B04461B68002B00F096804F48002106220DF0EEFC14F0380F3ED00DF002
:20022000C9FE4B4B1D46186001F0E2FF28B1494B1B78D90740F1818008E00DF0BBFE2A6872
:200240006FF009039B1AC342EED4F0E73F4D0120682102F087FC29463B2006220EF09EFFA8
:2002600006460020014602F07DFC36B102F0B6F8202C07D1B5F900000DE0284606210EF087
:200280009AFF5AE0102C02D1B5F9020003E0082C4CD1B5F9040001F04FFF48E062074CD0FA
:2002A0000DF088FE2A4B1D46186001F0A1FF20B1284B1B78DB0740D508E00DF07BFE2A681C
:2002C0006FF009039B1AC342EFD4F1E70120682102F048FC43201D4906220EF05FFF1B4DC9
:2002E000064610B102F07AF803E0284606210EF062FF0020014602F035FCF6B1042C02D182
:20030000B5F9000008E0022C02D1B5F9020003E0012C0BD1B5F904000CF0AEFA08A3D3E9ED
:2003200000230CF039FC0CF0A7FD00E000200A490CF000FF0DF04EF870BD4FF0004070BD5F
:20034000000000000060604060080020DE1C00205C290020032100200000C8420000000008
:200360002DE9F04F144623F00047024657EA04000E468FB01D469C46214634D06E4B26F0D5
:20038000004A9A459346B14626DC24D09F4223DC694B9F4200F08F80B9F1000FC0F28F8080
:2003A0004FF0000879BB644B9F4200F0A580634B9F4267D0BCF1804F00F0E283604B9C45FA
:2003C00021D1B9F1000F1EDB104631460FB0BDE8F04F0BF065BF62B10AF1404000F58010D7
:2003E00050EA0B0007D10346544918460FB0BDE8F08F5745CCDD53480FB0BDE8F04F0CF03A
:200400004DB84FF0000810463146CDF808C000920CF00CF8009ADDF808C0BBF1000F20D0C2
:200420004FEAD97909F1FF3958EA09037AD0464B9F4240F38F8003F104739F4240F31084A0
:20044000424B9A4540F39283BCF1000F40F3928337A1D1E900010B4602460CF073FA034606
:20046000C3E7BAF1000F04D0344B29F0404E9E45D6D1BCF1000FC0F2B683B9F1000F08DB51
:200480000346B2E7BCF1000FC0F2528413463146ABE70AF1404A0AF5801A58EA0A0340F037
:2004A0005E8402460B460CF099F80B4602460CF073FB034699E700293FF46EAF8CE7244B0D
:2004C0009F422CDCA3F154739F427FF769AF40F213403B15834240F34B84C3F586630333F6
:2004E00021FA03F000FA03F38B427FF459AF00F00100C0F1020855E70AF1404303F58013C5
:2005000053EA0B0300F03983104B9A4540F36483BCF1000FC0F22E832346294665E74FF00E
:2005200002083FE7104631463346BCE7AFF300809C7500883CE4377E0000F07F0000F03F74
:200540000000E03F2CF600000000E041FFFFEF3FFFFF3F43BAF5801F4FF0000205DACA4B0A
:200560000CF0F0F98A466FF034024FEA2A53C74ECAF3130AA3F2FF334AF07F571344B24567
:200580000C9347F4401740F3D083C14B9A4540F307840026B4460C9BA7F5801701330C932E
:2005A0003946BC4B4FEACC0C6344D3E900AB52465B46CDF834C0CDE906010CF00FF852464C
:2005C0005B46CDE90801DDE906010CF009F802460B460020B0490CF0DFFA02460B46DDE90B
:2005E0000801CDE90A230CF0ADF902460B46CDE90223CDE904237B1043F0005303F50023F0
:2006000099190020002306460F460293DDE902231046194632463B46CDE900010CF092F9D8
:2006200002460B46DDE908010BF0D8FF5246CDE908015B46304639460BF0D0FF02460B4630
:20064000DDE906010BF0CAFF02460B46DDE900010CF078F902460B46DDE908010BF0BEFF1C
:20066000DDE90A230CF06EF9DDE90423CDE90601104619460CF066F902460B4606460F4630
:200680000CF060F96EA3D3E9002382468B46304639460CF057F96CA3D3E900230BF0A0FFB3
:2006A00032463B460CF04EF969A3D3E900230BF097FF32463B460CF045F967A3D3E9002366
:2006C0000BF08EFF32463B460CF03CF964A3D3E900230BF085FF32463B460CF033F962A3DD
:2006E000D3E900230BF07CFF02460B46504659460CF028F9DDE9042306460F46DDE9000165
:200700000BF06EFFDDE906230CF01CF932463B460BF066FFDDE9006782468B4632463B4659
:20072000304639460CF00EF900225C4BCDE908010BF056FF52465B460BF052FF02980F4675
:200740000646DDE9000132463B460CF0FBF832463B46CDE90001DDE906010CF0F3F8002218
:20076000CDE906014D4B304639460BF037FFDDE908230BF033FF02460B46504659460BF017
:200780002DFFDDE904230CF0DDF802460B46DDE906010BF025FF82468B46DDE900015246F2
:2007A0005B460BF01DFF32A3D3E9002302980F4606460CF0C7F830A3D3E90023CDE904016A
:2007C000304639460CF0BEF8DDE90023CDE90601304639460BF002FF02460B46504659460D
:2007E0000BF0FCFE26A3D3E900230CF0ABF802460B46DDE906010BF0F3FEDDF834C0284B2F
:20080000CDF818C06344D3E900230BF0E9FECDE900010C980CF030F806460F46DDE90401E8
:20082000204BDDF818C09C44DDE90023DCE900AB0BF0D6FE52465B4636E000BFAFF3008068
:20084000EF4E454A287ECA3F65DBC9934A86CD3F01411DA96074D13F4D268F515555D53FA8
:20086000FFAB6FDBB66DDB3F033333333333E33F000000E009C7EE3FF5015B14E02F3EBED6
:20088000FD033ADC09C7EE3F000040438E98030079B60B0068F400000000F03F000008408C
:2008A00058F4000048F40000CDE906AB0BF098FE32463B460BF094FE029832463B468246D7
:2008C0008B460BF08BFEDDE906230BF087FEDDE904230BF083FE02460B46DDE900010BF090
:2008E0007DFECDE9020108F1FF3858EA09030CBFD54BD64B0022CDE904230023CDE900451D
:200900000093DDE90067204632463B4629460BF065FE52465B460CF015F8DDE902238046F8
:200920008946204629460CF00DF802460B46404649460BF055FE04460D46524630463946EC
:200940005B46CDE902450BF0FDFF06460F4620463B46294632460BF043FEBD4B82469942AC
:200960008946884640F3138101F13F4303F5E003034340F0E581A0A3D3E90023DDE90201FD
:200980000BF02EFE324604460D463B46504649460BF024FE02460B46204629460CF062FA92
:2009A000002840F0CD814C462015A0F2FE304FF4801101414144C1F30A50A64CA0F2FF35A9
:2009C000C1F3130BC0F5826003302C414BF4801B21EA040300224BFA00FB394630460BF0D0
:2009E000FDFD06460F46DDE902018BEAE87B0BEBD87B32463B464FEA0B5A0BF0F1FD80A3CF
:200A0000D3E90023002420460D460BF09BFF3246804689463B46204629460BF0DFFD024603
:200A20000B46DDE902010BF0D9FD77A3D3E900230BF088FF76A3D3E9002306460F46204651
:200A400029460BF07FFF02460B46304639460BF0C7FD06460F4632463B46404649460BF0B7
:200A6000BFFD42464B4604460D460BF0B7FD02460B46304639460BF0B1FD22468046894621
:200A80002B46204629460BF05DFF63A3D3E9002306460F460BF056FF61A3D3E900230BF005
:200AA0009DFD32463B460BF04DFF5FA3D3E900230BF096FD32463B460BF044FF5CA3D3E9FB
:200AC00000230BF08BFD32463B460BF03BFF5AA3D3E900230BF084FD32463B460BF032FFC5
:200AE00002460B46204629460BF078FD06460F4632463B46204629460BF024FF0022CDE9B3
:200B000000014FF08043304639460BF067FD02460B46DDE900010CF03FF8424606460F46C2
:200B20004B46204629460BF00DFF42464B460BF057FD02460B46304639460BF04FFD2246A3
:200B40002B460BF04BFD02460B4600203F490BF045FD8A44BAF5801F0246C0F2278153460C
:200B6000DDE904010BF0EEFE03463EE4BCF1000FFFF66EAC0023194637E40B46334934E40B
:200B80003346104631460BF0DDFE03462DE4324B21F000449C4240F3FA80304B0B44034372
:200BA0000CD132463B460BF019FD02460B46DDE902010CF043F900283FF4F6AE20A3D3E936
:200BC0000023DDE904010BF0BDFE1DA3D3E900230BF0B8FE034608E4BCF1000FCADA234623
:200BE00005F1004101E402460B46002017490BF0D3FF42E4AFF30080FE822B654715973C6C
:200C000000000000432EE63FEF39FAFE422EE63F396CA80C615C20BED0A4BE726937663EAD
:200C2000F16BD2C541BDBB3E2CDE25AF6A56113F93BDBE166CC1663F3E5555555555C53FFB
:200C400059F3F8C21F6EA5010000F0BF0000F03FFFFF8F40FFFF0F00FFCB904000346F3F27
:200C6000634B9A4582DD634B9A453FF7EDAB0022604B0BF0B3FC54A3D3E9002306460F463F
:200C80000BF060FE52A3D3E90023CDE90001304639460BF057FE3246CDE902013B46304603
:200CA00039460BF04FFE002282468B4630463946514B0BF047FE02460B4647A1D1E90001A5
:200CC0000BF08CFC32463B460BF03CFE02460B4600204A490BF082FC02460B4650465946D0
:200CE0000BF030FE3EA3D3E900230BF02BFE02460B46DDE902010BF071FC06460F46DDE9B6
:200D0000000132463B460BF06BFCDDE90023002082468B460BF062FC02460B4630463946EE
:200D20000BF05CFCCDE90201DDE50026B44637E4334600202F490BF02FFF0346FFF755BB21
:200D400029A3D3E90023DDE904010BF0FBFD26A3D3E900230BF0F6FD0346FFF746BBB8F1AB
:200D6000010F03467FF441AB01F10041FFF73DBB00297FF446ABC3F58263033347FA03F006
:200D800000FA03F3BB4217D08846FFF710BB1B4B9C423FF709AEDDE90023924693462EE611
:200DA0004FF480264FF0010CFFF7FABB5A4600F027F802460B46D3E600F00100C0F10208A6
:200DC000FFF7F5BAAFF30080000000604715F73F44DF5DF80BAE543E555555555555D53F85
:200DE000FE822B654715F73F9C7500883CE4377EFEFFEF3F0000F03F0000D03F0000E03F5B
:200E0000F8B5C1F30A5604460D460B46174616BB21F00043034332D00022314B0BF092FD31
:200E2000304A044697420D460B4637DB40F2FE72C1F30A56363E3E44964215DD24A1D1E96A
:200E4000000122462B460BF0BDFB21A3D3E900230BF078FDF8BD40F2FF72964224D040F29C
:200E6000FE723E449642E9DC002E09DD23F0FF4323F4E00343EA065520462946F8BDF8BDB9
:200E800016F1350F15DA4CF250339F42D6DC12A1D1E9000122462B460BF094FB0EA3D3E986
:200EA00000230BF04FFDF8BD02460B460BF098FBF8BD23F0FF4323F4E003363643EA0655F4
:200EC000204629460022084B0BF03CFDF8BD00BF9C7500883CE4377E59F3F8C21F6EA50179
:200EE00000005043B03CFFFF0000903C044B1A68B2F5806F03D01B689B0500D4FEE77047DC
:200F000028ED00E008B509F049F80C4A0C4B0D498B4204D252F8041F43F8041BF7E70A4848
:200F20000A494FF000028842B8BF40F8042BFADB00F050FCFFF7DAFF08BD00BF01FB000015
:200F40000000002085060020880600207430002010B5038804462BB1632B09D000230380D1
:200F6000032010BD00F02AFC63232380012010BD034B1B788B42F9D1104600F0B7FBF3E70A
:200F80006A3000202DE9F04100248046254608EB05035B7818F8056003EB0626B6B296B9E7
:200FA000002C12DB01D001342CE0194C19482168194A0844C1F580710DF018F9236818446C
:200FC000206001241EE0002C0DDC75B1104F11483968124A0844C1F580710DF007F93B68EB
:200FE0001844386001E04FF0FF34094F09483968334608440A4AC1F580710DF0F7F83B6811
:20100000184438600235102DC1D1BDE8F08100BF90060020DB1F002034F6000035F60000DC
:2010200037F60000F8B5838D0446D62B66D009D89E2B14D0D02B46D0002B40F0D4809E2336
:2010400083850CE0B3F5887F00F0B58040F21112934200F0BF80FD2B40F0C58089E004F174
:201060002C006349332206F0BFFE012801D80020F8BD604960480CF035FE604B0E221A60E4
:201080005F4B186809F0AAF95E4B186006E05D4D5B4B296818680DF0C2FF2860594B574D94
:2010A0001868554EF0B1FFF76DFF2968564A7018C1F580710DF09AF82B681844D3282860A9
:2010C000E5D9D023A3854C480CF06AFE4A49024604F12C0006F088FE0128C8D9474B002249
:2010E0001A60D4E72968494A7018C1F580710DF07DF82B681844D6232860A3853E480CF0DC
:201100004FFE3D49024604F12C0006F06DFE0128ADD93A4B00221A6006F09AFA3C4B1860D9
:201120003B4E364D3068344F002837D00830FFF729FF29683368374A781893F82430C1F531
:2011400080710DF053F82B6818442860306806F06FFAFFF717FF2968336878189B69C1F566
:2011600080712D4A0DF042F82B681844FD232860A38521480CF014FE1F49024604F12C00C9
:2011800006F032FE01287FF672AF214D1B4B002228681A600DF0CCF92860C1E729681F4A7E
:2011A0007818C1F580710DF021F82B6818444FF488732860A38510480CF0F2FD0E49024623
:2011C00004F12C0006F010FE01287FF650AF40F21113A38504F12C0011490F2206F004FE2B
:2011E00001287FF644AF0023A3850320F8BD00BF3AF600006EF60000DB1F00209006002018
:201200003C050020A8060020B6F600007DF60000A40600208FF6000099F60000A1F600000B
:20122000A8F600000048704725100000074B3F2210B51A70064C50225A700223238001F093
:2012400055FF044A00232380137010BD74290020602900201528002070B540F25D160488BD
:201260000546B4421CD0B4F5AF7F0ED2A4B92E4B20461C702D4B5B6998472D4B8521186809
:20128000224603F065FD2E8041E0B4F5B77F0FD040F27B139C423CD000232B80032070BD3C
:2012A000852934D1234B01219B688120984703E021480CF0CEFF50B31B4B1B7843B91E48F5
:2012C00080210CF0ABFFFFF7B1FF4FF4B7731DE0164B01205B69984718480CF074FE184C60
:2012E00004F1600614F8022C237C52B1012B08D820200CF061FE204607F03EF80A200CF057
:201300005BFE2034B442EDD140F27B132B80012070BD0C4B1B788B42F6D1064B9A42F3D144
:201320001E200DF016FBEFE7DA1F0020D0F50000940C0020ECF4000094060020B8F60000A5
:201340008A2D00205E300020034630B5154A85B000F1100553F8041BAB4242F8041BF9D1C6
:2013600003466C46224618685968083303C2AB421446F7D10C4B012468460C491C700DF0B2
:20138000A6F800216846224605F0D8FE1E20694607F02CFA18B1034940220DF064F905B01D
:2013A00030BD00BFB41C0020DA1F00206C29002008B54FF4E13001F0D7FD0448002103F08D
:2013C000F3FCBDE80840024801F08ABE9C040020D513000030B52F4C85B023782546212B1F
:2013E00021D161782C4802F09BFE2C4B002119802B4B19706378502B3DD1102268460CF0B3
:20140000F9FB6B4654F8020F616803C3254802F087FE684606F0B0FF0A200CF0CDFD684666
:20142000FFF792FF27E03F2B25D11F48617802F077FE63784D2B19D12123237000231B4A7B
:2014400001331A4412F8012C1949140902F00F02645C525C05EB4300082B05F8134042706B
:20146000EDD10E4B12221A8001F040FE0B4A002313800B4A13700F4C0F4A04F1100523464E
:2014800003CBAB42106051601C4602F10802F6D105B030BD74290020F0F60000602900205C
:2014A0001528002016F7000026F700006C29002046F700007C290020C41C002008B50D48DC
:2014C0000D4910220CF08AFA78B90C4802F028FE094806F051FF0A4802F022FE094806F025
:2014E0004BFF0A200CF068FD01E001F0FFFD002008BD00BFC41C00207C29002057F7000092
:201500008BF700008C29002038B5038904469E2B0AD004D8002B50D19E23038104E0A32BEF
:201520001BD0BA2B41D048E004F10800202106F0BBFC012801D8002038BD04F152002149EF
:2015400004220CF05BFC30B11F4B10221A7000232381022038BDA323238104F10805284653
:20156000202106F0A1FC0128E5D994F852302F2BEAD194F85330202B04D1144B1B88A4F8C0
:201580006C300DE028460CF0DAFF0023204480F8513004F1520104F16C0002220CF078FCC2
:2015A000012384F87430BA23238104F108000A2106F07AFC0128F6D8BDE70023238103204D
:2015C00038BD00BFD4F80000002A002091F7000038B5838D0446632B0D4604D0762B11D03B
:2015E000C3B96323838528460CF0DAFB2946024604F12C0006F0F8FB012801D8002038BDCA
:201600007623A38504F12C0004491B2206F0ECFB0128F3D90023A385032038BD50F80000E1
:2016200010B5B0F850300446882B21D003D83BB1862B12D04AE08E2B35D08F2B3CD045E0A2
:2016400003676D30FFF7EEFD206748BB224B1B88A4F86C308623A4F8503020461F49FFF747
:20166000B7FF012801D8002010BD8823A4F85030A38D13B1562B02D009E05623A38504F138
:201680002C001749582206F0AFFB0128EBD9154A00231021A3851170A4F85030022010BD50
:2016A0008E23A4F8503020460F49FFF791FF0128D9D98F23A4F85030236F20469847012870
:2016C000D1D900232367074B10221A700023A4F85030032010BD00BF6CF800009DF70000BF
:2016E0007BF80000002A0020FAF700002DE9F0412F4D04462B78A84613F0300601D11A0673
:2017000009D5002C51D0002323672146BDE8F04128480CF035BE03F0400202F0FF073AB33B
:2017200024480CF019FE044620B9202388F80030BDE8F081204B2146186804F1520506F06A
:201740003FFC04F10800294619220CF0FDFE04F12C00294619220CF0F7FEA4F8506026671B
:2017600084F8746020464FF4A0610CF082FD10E00028DAD01B070AD50CF08DFD48B120236F
:20178000276721460B482B700CF0FAFD01E00CF07CFD2046FFF7B8FE94F87430012B04D1DA
:2017A0002046BDE8F041FFF73BBFBDE8F08100BF002A002048040020102A002008B54FF418
:2017C000A04006F0DFFBBDE8084001480CF0B4BD480400202DE9FF41604C614823680121F2
:2017E0005B689847236801210A461B685C4898470DF0CFFB02F0D6F802F040F800F03AFF6A
:2018000002F07AF800F05CF9564B01201860A3F58043043B186003F5005324331B680CF0B2
:201820006DFB0DF0BAFB01F085FA01F029FA0CF01EFD01F055FB03F011FA41F234200CF031
:20184000D1FD01F0E1FD03F045FB47480CF0BBFB4AF630520021454802F062FC44480CF02F
:20186000B2FB0021434803F09FFA03F04BF80CF0D4FC02200CF042FB3F4802F051FC3F4BD6
:201880003F4C18680CF09FFB3E4802F049FC3E4B18680CF098FB3D4802F042FC21683C4890
:2018A00002F03EFCE469A04720B1A0470146394802F036FC0A200CF07FFB002508F060FE09
:2018C00002A80821019501F031FB9DF80F309DF80E80314C314E43EA082802AB03CBF76A56
:2018E0002060616002204AF6CD31B84741460320B8470B210120B8470822736B02A90B2075
:201900009847B36A01A9012098470199244802F007FC244A236813606368536008F07EFFC7
:201920002946214803F040FA02200CF0E7FA29461E4803F039FA1E480CF065FC01F0E6FA14
:2019400001200CF0DBFA03F0A1F9044601F0D4FA14F0FF0FF7D101F0AFFEF4E7D8010010C3
:20196000004003400C400940D9F80000FCF8000013F900001C05002027F90000C4F5000064
:20198000F8F500002EF90000D0F5000035F900003CF900003FF900006C30002084F500009E
:2019A00062F900006C290020A00500205404002088F4000070B505880446772D30D07E2D13
:2019C0003FD0002D4DD103F041F9294B1870294B1D601D462B68284A264E52F823204AB12F
:2019E00026480021C154936880209847336801333360EFE7224A1370772320E01F4AD25677
:201A0000002A12DB1B4A136801331360194B1C4A1B6812789342F1DB1A4B1B68002BEBD0E2
:201A2000184A00231360134AEFE7114A00201178114A52F8232003F08BF930B97E232380EB
:201A400013E00B4B1B788B420FD10A4B0B491A688B5C03F07F038B540A4A13680133136021
:201A6000D0E700230380032070BD012070BD00BF5E3000209C070020640400205F30002004
:201A8000DD200020A0070020094B1A780023934204DA084951F82310814207D106490748A0
:201AA000CA5C62F07F02CA5403F096B90133EEE7DD200020640400205F30002054040020F8
:201AC00008B500F019F8024B00221A7008BD00BFDE200020024A13781843107000F026B82D
:201AE000DE200020034A137823EA0000107000F01DB800BFDE20002010B5094B1A6872B9FB
:201B00000122084C1A6023680A20DB6B984723680F20DB6B9847044B4FF404421A6010BDFC
:201B2000A4070020B4010010A0200240094B4FF404421870084B1A60C20744BF4FF48062F0
:201B400043F8102C830742BF044B4FF400421A60704700BFDF200020A020024090200240AC
:201B6000813801289ABF024B18680020704700BFC8070020024B032202481A60FFF784BF69
:201B8000C80700209CF400002DE9F84F524B04461B68032B03D04FF00040BDE8F88F431EF2
:201BA000012BF8D84D4D0622002128460CF022F80020772100F0D6FFF720294606220DF09A
:201BC000EDFA20B9284606210DF0F5FAE3E7EB782F7943491B0343EA07136F79088843EA59
:201BE00017132A7895F801B0AE78C0EB13156D434000B1F904E0C0EBD3032D13B1F90200F7
:201C00000EFB05F55843AD1305EBE0274FEA6708A8F57A484FEAA80E0EFB0EFEB1F90A3080
:201C20004FEA6E355D43B1F90830C88808FB03F35B1003EBE505AD1405F500456843C0133C
:201C40008F61B1F910A0B1F90EC0B1F90C9039D0360946EA0B1B4BEA0232C2F1000B40F681
:201C600035420FFA8CFC0CFB08F84FEAEE2E0FFA8AFA4FEA48080AFB0E8E4FEA094909EBCA
:201C8000AE03ABEB23335A4302F1434303F5A003002BB3BFB3FBF0F35A00B2FBF0F35B0083
:201CA000DA085243B1F91600520B4243B1F914009D086843401300EB2232B1F9120010445B
:201CC00003EB2010012C05D107EB870080300012BDE8F88FBDE8F88FC8070020E020002041
:201CE000E6200020802873B50D46254C02D081281DD041E0012626600CF02AF92149182231
:201D000088200DF04BFA02ADB62305F8013D29463246E02009F0A6FB0CF01AF900232946F4
:201D20003246F4208DF8073009F09CFB24E0206818B391B10CF00CF925230DF107010122C0
:201D4000F4208DF8073009F08DFB00230E4803210E4A02F00DFE02230DE00B4802F02EFEBD
:201D60000CF0F6F8F4200DF1070101228DF8075009F078FB01232360206802B070BD00BF27
:201D8000C8070020E6200020A8070020751B0000813801289ABF024B18680020704700BF31
:201DA000F0070020024B032202481A60FFF76CBEF0070020ACF4000010B50446442100206B
:201DC00000F0D0FE084B1CB14FF480521A8000E01C801A88022052BA1A8003490246BDE857
:201DE000104009F03FBB00BFD41C0020802838B50D46184C02D0812813D028E0164D01209B
:201E00002B689B6B98472B6801209B694FF4804198472B680120DB694FF0804198470020B8
:201E200011E02068A0B151B10120FFF7C5FF00230A4824210A4A02F09BFD022306E0074809
:201E400002F0BCFD2846FFF7B7FF01232360206838BD00BFF0070020B4010010D007002007
:201E6000A51D000070B52F4B05461B68032B02D04FF0004070BD8207FAD0032849D12A4E77
:201E80000020442100F06EFE0420314602220DF085F9264C80B133885BBA33805B040BD5C2
:201EA0000120214602220DF079F928B12846A11C02220DF073F920B91C4804210DF07BF9A3
:201EC000002063782578A27843EA0525E37843EA02230028CCD098080BF0D8F84FF0745119
:201EE0000BF028F912490BF025F90BF073FA114B1860A8080BF0CAF84FF074510BF01AF997
:201F00000B490BF017F90BF065FA0B4B1860012070BD012801D1074B02E00228A8D1064BC9
:201F2000186870BDF0070020D41C0020FE20002000007A44CC070020F4070020014B1868F7
:201F4000704700BF1808002073B506460E4C00204521256800F006FE36B141F2C203ADF872
:201F600006300123236006E04FF4865305F00205ADF8063025600DF106010222012009F0E3
:201F800071FA02B070BD00BF18080020802810B50C4602D0812802D013E000200FE051B1E8
:201FA0000120FFF7D1FF08481021084A002302F0DFFC012010BD044802F000FD2046FFF7F2
:201FC000C3FF002010BD00BFF8070020D11F000007B50020452100F0C5FD01200DF106016A
:201FE00002220DF0DBF8BDF90630002B06DA0848FFF74AFD074B02221A6005E00648102115
:20200000064A002302F0B4FC03B05DF804FB00BFBCF4000018080020F8070020D11F0000E6
:20202000813801289ABF024B18680020704700BF3C08002038B5114B114C03221A602378BE
:20204000ABB1104D0020432100F08CFD0421284600F0C4FC20700020014600F083FD2B886D
:20206000094A5BBA13806B88084A5BBA1380012323700748BDE83840FFF706BD3C08002038
:2020800002210020DA1C0020D61C0020D81C0020CCF40000802837B5204D02D081281BD09A
:2020A00039E01F4B00241C801E4B20461C801E4B43211C805C8000F055FD02A910230220EB
:2020C00021F8023D024609F0CDF9184B21461870204600F047FD1CE02868E8B1B1B1134CCF
:2020E00023785BB14321002000F03CFD002000F057FC20700020014600F034FD00230C489A
:2021000003210C4A02F034FC022303E0084802F055FC01232B60286803B030BD3C08002045
:20212000D61C0020D81C0020DA1C0020022100201C0800203520000008B5114B1B78032BAD
:202140001CD8DFE803F002070C110AF095FB00220C4B0EE00AF090FB00220B4B09E00AF0DA
:202160008BFB0022094B04E00AF086FB00224FF07D530AF0E7FB0AF07FFE08BD002008BDD6
:20218000062100200000103F0000203F0000303F813801289ABF024B18680020704700BF3D
:2021A00060080020024B022202481A60FFF76CBC60080020DCF4000010B50C4C0120682125
:2021C00000F0D0FC3F23214601226C20237009F049F921464F236B200122237009F042F9AF
:2021E000BDE810400020014600F0BCBC0721002010B5084C0120682100F0B4FC21460122E6
:202200003A200CF0CBFF0020014600F0ABFC207810BD00BF03210020802838B502D0812828
:2022200024D04DE0284C072023689B6B9847236807209B694FF40051984723684FF08041BE
:20224000DB690720984723680C20DB6B984723684FF440729B6A0C204FF4806198471B4B3E
:202260004FF480521A600022194B28E011F03F0110D0174B4FF480521960164B164C1A60F3
:20228000012516480821164A0023256002F070FB256015E0134B1B68DB0411D50C4B0F485E
:2022A000196002F08BFBFFF787FF0F4B1B6813F00103FAD1084A1360044B4FF480521A605F
:2022C000054B186838BD00BFB4010010A02002406408002090200240600800204008002045
:2022E000ED22000080200240042800402DE9F041324B1A681C4612F0380F15D0304E337882
:2023000093B1304F0025012068213D7000F02AFC39461C20012209F0A5F8074629462846CA
:2023200000F020FC07B13570274D24682F7804F03F0417BB0CB3254E0120682100F012FCAA
:202340000923314601226B20337009F08BF83F23314601226C20337009F084F819490122E8
:202360001C202F7009F07EF831463A2001220CF015FF3846394600F0F5FBE3B22B709CB1B5
:20238000DB43124C01206821237000F0EBFB214601226C2009F066F80020014600F0E2FB0D
:2023A0000B480CF0FEFD01E0FFF706FFBDE8F04108480521084A002302F0DABA6408002024
:2023C000062100200421002005210020072100208038010040080020A5210000064B1A7819
:2023E00059785A7019709A78D978DA7099701A7959795A7119717047DE1C002008B5034B6D
:202400001B685B689847C0F3804008BDB401001030B9064B186800F0010080F001007047C7
:20242000012806BF024BD86800207047C02002406808002030B9044B186880F01000C0F3AD
:202440000010704700207047C020024038B5E0B9134C20460BF01FFF08B3204604210BF017
:2024600008FF104B1B6813F0010504D100F04CFCE560A06038BD00F047FCA368C01AE060CF
:20248000BDE838400848FFF7FFBA042807D1BDE838404FF480414FF0805201F041B838BD0B
:2024A00068080020C0200240ECF40000802870B5144602D0812816D070BD184B0125954077
:2024C0001D60174B10461B6800211B68154A9847154AE0B21368154923EA05051560BDE867
:2024E000704001F0F3B90E4E89B10C4B012595401D60336810461B680A4A002198470A4A0E
:20250000136823EA0505156033681B6B01E033685B6B2046BDE87040184700BFE020024036
:20252000B401001000400720D02002404D240000024B186800F00800704700BFC02002406F
:202540008138012808B507D8044B03201B685B689847C0F3804008BD002008BDB401001084
:20256000802810B502D0812819D020E0114C032023685B6B9847104B08221A600F4B4FF43E
:20258000A0601B68DB699847236803201B6800210B4A984703200B4901F098F907E0054BDF
:2025A0001B6809B11B6B00E05B6B03209847012010BD00BFB4010010E0200240B801001033
:2025C00000200320C925000008B507480BF063FE40B10648FFF758FABDE808400248402143
:2025E0000BF047BE08BD00BF780800200CF5000008B5064B04201B685B699847034B0420EC
:202600001B685B6B98470128F8D108BDB8010010032808B51ED108F0F3FF104B00219B68D2
:20262000812098470E4B00219B68812098470D4B00219B68812098470B4B00219B68812006
:2026400098470A4B81209B6800219847084B4FF480521A60BDE8084000F006B99CF4000094
:20266000BCF40000ACF40000CCF40000DCF40000A020024070B50CF08CFC0646FFF7B8FFD6
:202680003C4B4FF4A0601B68DB6998473A4B01221A603A4B1B689B07FBD5394C00F0B6F80B
:2026A00008F0A8FF0CF08EFD364801F0DBF8236819209B6B984723684FF400519B691920AD
:2026C0009847236818209B6B984723684FF400519B6918209847236817209B6B9847236807
:2026E0004FF400519B691720984723681B209B6B984723684FF400519B691B2098472368B9
:202700001E209B6B984723684FF480419B691E20984723680D20DB6B98471B4B4FF400550B
:202720001D6023684FF4807200219B6A0D209847236802209B6B9847236829469B69022078
:20274000984723680B209B6B9847236829469B690B20984723681D209B6B984723681D2082
:202760009B69294698471EB9BDE870400CF015BC70BD00BFB8010010282008602820084019
:20278000B401001088040020A0200240024B186800F00100704700BF04280040024B186859
:2027A000C0F38010704700BF0428004008B5064B02201B685B6B9847012803BF034B1868E3
:2027C00000F00100002008BDB801001060200840024B186002200CF0E4BB00BF04280040E5
:2027E00010B5084B08481B685B68984710F00C0F044602D00420FFF7EBFFB4FA84F04009A6
:2028000010BD00BFAC0100100020004070B5104B02201B685B6998470D4D02202B685B6B72
:20282000984701280446F7D12B684FF44070DB699847084B1C60084B1B689B07FBD5074B6C
:2028400007481B6807491B680122BDE870401847B80100102820086028200840AC01001036
:2028600000200040006CDC02214B10B5FF221A70FFF79CFF20B11F4A002313601E4A136096
:202880001E4B4FF440701B681B6A98471C4B01221A601C4B1B689B07FBD51B4C082023687B
:2028A0009B6B984723684FF400519B6908209847236809209B6B984723684FF400519B694D
:2028C00009209847236805209B6B984723684FF480419B6905209847236806209B6B98472E
:2028E000236806209B694FF48041BDE810401847820600200428004010040542B801001093
:202900002820086028200840B40100102DE9F041204B214A1B7807465B0013601F4B8846AF
:202920001E4602781A60FFF739FF0028FBD10320FFF74EFFFFF72AFF0028FBD1FFF750FF5F
:2029400004460125454512D204B37B5D336008F1FF339D4209D20120FFF73AFFFFF716FF37
:202960000028FBD1FFF73CFF04460135EAE76CB10520FFF72DFFFFF709FF0028FBD1FFF795
:202980002FFF0446FFF70AFF0028FBD12046BDE8F08100BF08210020002800400828004070
:2029A00008B50B4B0B4A1B785B0013600A4B1860FFF7F4FE0028FBD10720FFF709FFFFF78A
:2029C000E5FE0028FBD1BDE80840FFF709BF00BF082100200028004008280040F8B506469C
:2029E0000D46204B204A1B785B0043F001031360FFF7D4FE04460028FAD10B20FFF7E8FE0B
:202A000001276B1E9C4212DA97B1FFF7BFFE0028FBD1FFF7E5FE07460028F2D0134B0920B5
:202A20001B6833550134FFF7D3FEE4B2E9E70FB9002414E0FFF7AAFE0028FBD1FFF7D0FEF3
:202A400004460028F4D0094B35441B68052005F8013CFFF7BDFEFFF7A1FE0028FBD12046F1
:202A6000F8BD00BF0821002000280040082800402DE9F74F82469046374A1E4613788B4686
:202A800036495B000B600378354D2B600192FFF785FE0028FBD10320FFF79AFEFFF776FE4E
:202AA00007460028FAD1FFF79BFE04464FF00109D94515D2002C4BD01AF809202A600BF1A7
:202AC000FF32914509D20120FFF782FEFFF75EFE0028FBD1FFF784FE044609F10109E7E7A3
:202AE000002C35D0019B1D4A1B780B205B0043F001031360FFF76CFE4FF00009731E9945C8
:202B000012D22CB3FFF742FE0028FBD1FFF768FE04460028F2D02B68092008F80930FFF74D
:202B200057FE09F10109E9E794B1FFF72FFE0028FBD1FFF755FE58B12B68464406F8013C66
:202B40000520FFF745FEFFF729FE0028FBD10127384603B0BDE8F08F0821002000280040D8
:202B6000082800402B4B10B504461970FFF71EFE08B9FFF74BFE284B1A78A24248D0274954
:202B800000221C700A6026490A601B78D3B9254C052023684FF4C0419B699847236806202C
:202BA0009B694FF4C041984723681F48DB6C052106229847236808209B6B9847236809203C
:202BC0009B6B1BE0012B1AD1164C082023684FF4C0419B699847236809209B694FF4C041A5
:202BE000984723681048DB6C082109229847236805209B6B9847236806209B6B9847BDE8C9
:202C000010400A4B08481B6809491B680122184710BD00BF082100208206002004280040FC
:202C200010040542B401001000200040AC010010006CDC0208B5064B04201B685B699847B5
:202C4000034B04201B685B6B98470128F8D108BDB80100100749084A0B68126809688B428D
:202C6000F8D1DB01054903EB52620023C1E90023704700BF082009400C20094088060020C5
:202C800010B5184B00200021C3E90001164C042023685B6B9847012801D0FFF7CBFF236823
:202CA0000020DB699847114B01221A60104B1B689B07FBD50F4A104C1368204623F48073E8
:202CC00023F0010313600D4B0D491B681B689847042323600B4B31221A6040F2212243F85A
:202CE000342C10BD88060020B801001028200860282008400C00014000000140C801001089
:202D0000002100043C00014008B5FFF7A3FF024BD3E9000108BD00BF8806002010B50CF0BF
:202D200038F9034B1C6808B90CF037F9204610BD082009402DE9F0410CF02BF9194E1A4BCC
:202D400001240025194F35601C601C623B6880461B682846232198473B6820461B682421E4
:202D60009847134A136823F4E02343F440331360104B1D6006F04EFE0F4B00F50070186014
:202D80000E4B14201C600E4B34601B681B699847B8F1000F03D1BDE8F0410CF0FEB8BDE89E
:202DA000F08100BF00002443800024438401001000200940082009401C200940A002244398
:202DC000B0010010064B1868083B1B68DB0706D5044B1B681A1A30EA220028BF18467047A0
:202DE0001C20094018200940431E012B15D810F001031CBF094A116010F0020006D0084A86
:202E0000116023B9074B01221A6070472BB1064B01221A600028F5D1704770471820094018
:202E20001C200940A002244380022443014B1868704700BF8008002008B50BF0BBF8114B6A
:202E400018600BF0A7F8104B1B686BB10F4B4FF480721A6006F0DEFD00F2052020F4FF70F2
:202E60000B4B20F0010018600A4B1B684BB10A4B00221A60054B01221A60BDE8084001F0E3
:202E8000C9BF08BD80080020A0002443042009401C2009408000244380022443820742BFEA
:202EA000034B01221A60C30701D50CF076B87047000C084008B50CF06CF8074B1A68012A36
:202EC00009BF064A00231A600223002814BF184643F0010008BD00BF000C084051E5CC1A97
:202EE000034A044B1A600122C3F8002C704700BFFFFF0F0000000840024A034B1A600122B0
:202F0000DA607047FFFF0F000000084010B5FFF7D1FF0446FFF7F0FF034B01221A60204660
:202F2000BDE81040FFF7BABF040100430A4B13F8012FFF2A04D1094A9342F8D1084B00E033
:202F4000084B19440138994204D001390A7800F8012FF8E7704700BFC7FF0100CFFF01000A
:202F6000F0120050C8FF0100014800F075BA00BF493100002DE9F74F0388074633B1B3F5D6
:202F8000817F11D00023038003208EE0484A1380484A1380484A1380484B01221A704FF427
:202FA00081733B80012080E082294FF00106F9D1DFF804914248B9F80050424B425D1E7075
:202FC000432ADFF8EC8082462BD1DFF8E8B0BBF80020954225D2521B052A22DD00EB050CD6
:202FE000604639490622CDF804C00AF0F7FCDDF804C00446A8B96046214606220AF0FAFDA1
:203000002E4BA8F80040ABF80040A9F800401E702E4B185D01340BF000F80D2CF8D10024C9
:2030200038E0B8F80060B542F9D00AD2741BA4B28C2C20D80AEB0501224625480AF000FD70
:203040001AE006F19C04641BA4B28C2C13D82B461F4A591B9B2B114405D81AF80310521B8F
:20306000D1540133F4E70023B34205D21AF80320CA540133F8E700240F4B1E800F4B1A78BF
:2030800042B90C4A13481288A8F8002001221A7001F0A2FE104B1C80002C80D00F4B1B689C
:2030A00003B1984704F0A8FF79E703B0BDE8F08FE61C0020E41C0020E81C0020A52100205F
:2030C0000921002068300020ADF90000B4F90000742900209C0400206029002084080020C9
:2030E000014B1860704700BF8408002038B5C0200AF093FF114B00241149A2B209889142FF
:2031000016D93C2A04BF0F4B1B6818785D1CC02804D1DB200AF081FFDC2004E0DB2802D1C9
:203120000AF07BFFDD200AF078FF01342B46E3E7C0200AF072FF002038BD00BF7429002061
:20314000602900200C2A002038B5284B1A78032A31D8DFE802F048170602C02843D1012209
:2031600013E0DC2808D0DD2808D003221A70204B1A88204B1A8036E0C02000E0DB200122EE
:203180001A7018E0DB2802D102221A702BE0C02811D1184A1188164A1088814223D0164C49
:2031A0002488844216BF002211801A70134801F013FE012038BD0F490F4C0D8824886A1C9E
:2031C0009C2A08BF0022A24205D103221A70084B1B880B8007E00A4B542858550A8002D194
:2031E0001B5D432BE2D0002038BD00BFA5210020E61C0020E41C0020E81C00209C04002057
:203200000921002038B50C4B02201B685B699847094D02202B685B6B984701280446F7D1ED
:203220002B684FF40070DB699847044B1C60044B1B689B07FBD538BDB801001028200860A8
:203240002820084008B5064B02201B685B6B9847012803BF034B186800F00100002008BDF7
:20326000B80100106C20084008B5084B15201B685B699847064A136823F4FE6323F00203EB
:20328000136040F2F272034B1A6008BDB0010010381000404410004037B5284CFFF7B2FFB4
:2032A0002368274DDB6827489847FFF7DDFF2B681D20DB6B9847244B4FF000521A602A68AB
:2032C0004FF0FF330093156C1E481C211D22A84723681C485C681D494FF4E1326023A047BF
:2032E0001B4B14221A601B4A1B49136843F01003136040F2011240F201330868002808BFB1
:20330000134602F1804202F62F72136040F2F272124B1A600B687BB102F1804202F6460292
:203320001368152043F0500313600D4B1B681B6903B0BDE83040184703B030BDD0010010DD
:20334000B40100100010004090200240006CDC02341000402C1000408808002044100040D8
:20336000B001001038B50546FFF76CFF18B11F4B1B681A07FBD4032D03D01D4B1B68002B34
:2033800032D1FFF75FFF30B11A4B1B481B68DB689847FFF769FF194C4FF4007023681B6A02
:2033A0009847032D09D123684FF400709B6A984723684FF400701B6B9847114B01221A6066
:2033C000104B1B689B07FBD51D2000F067FA1C2000F064FA4FF0FF3000F060FABDE83840B0
:2033E0004FF0FF3000F05ABA38BD00BF1810004088080020D001001000100040B801001095
:20340000282008602820084010B50BF0C2FD0446054800F027FA054B00221A601CB9BDE8DF
:2034200010400BF0BABD10BDAC0400208808002010B50446FFF706FF08B9FFF72DFF044B41
:203440002146BDE810401B680248DB69184700BFD001001000100040124B10B51860124CB8
:20346000124B40B9186123684FF400709B6A984723681B6B08E002221A6123684FF4007085
:203480005B6A98472368DB6A4FF400709847084B01221A60074B1B689B07FBD5BDE81040FA
:2034A000FFF7FABE88080020B8010010AC040020282008602820084008B5FFF7C3FE18B198
:2034C000024B1868C0F3C00008BD00BF1810004008B5FFF797FE40F2F2710B4B0B4A1B68B5
:2034E000116013F0500F0AD108BD094B09481B681B699847084B1B680BB1C0B29847074B99
:203500001B68DB06F1D508BD4010004044100040D00100100010004088080020181000404F
:203520002DE9F0411646074688460BF032FD474B474A00241C600123136013621364454BCD
:2035400020461B683F211B6801349847042CF6D10024404B20461B683F219B680134984785
:20356000032CF6D13C4D2B68FFF7C6FC3B480AF0A3FE04462CB1A3680BB1032098472468E7
:20358000F8E77B1C10D0364901230A68BB4022EA03030B60334B46F000521B6838461B68BE
:2035A000214642EA080298472F4F00262F4C3E60236807209B69984700F02AFA0AF036FDFC
:2035C0002B4B38201A6822F003021A605A6822F4C0525A609A6822F00F029A60254B1E6059
:2035E0002368254C9B699847244B26601B680120DB689847224A26603B4616609046264606
:20360000204A126812F02004FAD11F4A012717601E4A1F48146054601C601E4B1E4A1C600D
:203620002B681368032123F0030313601B4B1B685B6898471A4B3460C8F800401F602B6836
:203640000A4BBDE8F0411B689B6B18470000244380002443840100102C2009408C0800202B
:20366000D0200240B40100100C400940B8010010001009408001224340100940A00100106C
:2036800020042243141009408801044340012243004003400800094024220840D801001073
:2036A00018100940034A136823F00403136030BF704700BF10ED00E070B50BF06AFC01F08B
:2036C0003DFB18B1BDE870400AF0A9BCFFF77AFB04460AF06FFC201A202805D50AF09FFC2A
:2036E000BDE87040FFF7DEBF50480AF0E5FD0446022544B1636823B19847A84228BF28464B
:20370000C5B22468F5E701F009FA044601F0FEF948B1FFF7F9FA241AFFF788FB00EB4421BB
:203720000220FFF761FB012DD8D040480AF0C4FD0446062644B1A3680BB1284698472369F1
:20374000246826EA0306F5E7FFF7D6FB730748BF374B06F0060548BF1C6025B1354B2846D6
:203760001B689B69984700F053F9334A00241368392023F0030313605368304E23F4C05343
:203780005360936843F00F0393602D4B1C60294B1B689B6998472B4B34601B680120DB6884
:2037A0009847294B34601C60284B186810F02000FAD106F06FFC062D02D1022006F0D2F97E
:2037C000234C244D244E2B682368244823F003032360336803215B689847164B1B689B6B26
:2037E00098472B6806F01EFD1D4B00221A6033681A4801215B6898472368012243F003039A
:2038000023600B4B1A602B6806F03CFD0AF0C2FBFFF772FB05480AF04FFD0446002C3FF43D
:2038200051AFE36803B198472468F7E78C0800200C400940B801001000100940401009403C
:2038400080012243A00100102004224314100940242208402C200940D8010010004003404C
:2038600080010443014601480AF044BD8C080020014601480AF02ABD8C08002010B505480A
:203880000AF017FDBDE81040034B02201B6820211B6818478C08002084010010431C10B5A2
:2038A00004460DD0074B00211B684FF4C0421B689847054901230A68A34022EA03030B6000
:2038C00010BD00BFB4010010D020024038B504460D460BF05EFB0123054AA3401360054B6E
:2038E00043F8245018B9BDE838400BF056BB38BDE0200240900800200023064A002142F862
:2039000023100133202BF8D1034B10201B681B69184700BF90080020B001001038B5094BCF
:2039200000241D681D600123A3402B42E0B204D0054B53F8243003B198470134202CF2D1C1
:2039400038BD00BFE02002409008002010B5074C18B9236801205B689847236840205B68D4
:203960009847034B00221A6010BD00BFA00100100002224338B50A4C06F0D8F82368012025
:203980009B689847236805461B6801209847044B01201B689B6898471128F8D1284638BDB2
:2039A000A001001013B5FFF7E5FF0446042006F0ABF8032810D00420032106F07FF80420C9
:2039C00006F0A2F80328FAD10090002105484FF040521C2306F02EF8204602B0BDE810402A
:2039E000FFF7B4BF00A00C4010B5FFF7C3FF0446012006F089F8012802D0044B9B6B9847E4
:203A00002046BDE81040FFF7A1BF00BF4800001010B5FFF7AFFF00210446032006F04EF8AB
:203A2000012006F071F810B1034B9B6B98472046BDE81040FFF78ABF48000010034A0021B2
:203A40001368197219711B68136070471809002008B507F037FF20B1024B5888831E5842C5
:203A6000584108BDD409002037B5FFF7F1FF0446E0B9104801A907F02DFF012814D10AF009
:203A800099FA05460B4B5A881C46022A04D16488A31E5C425C4107E00AF08CFA6FF03F03BD
:203AA0005B1BC342EED4F2E7204600E0012003B030BD00BFD409002000B589B002A818215C
:203AC00040F602020BF08CFB154B02A81A689DF81A30117961F305038DF81A30517961F3EC
:203AE00087138DF81A3092799DF81B3001A962F347038DF81B300B4B079301238DF816307A
:203B000007F0E8FE012806D102A807F023FF431E5842584100E0002009B05DF804FB00BFA5
:203B2000D4040020D804002038B5084B00201D461C682379032B03D1054801F04DF9012007
:203B400024682B689C42F4D138BD00BF100900206C06002008B50346B32994BF0A46B422C9
:203B60000248194609F06CFF012008BD1E09002070B5114B1E683379032B1AD1337A032B64
:203B800002D8FFF75BFF14E0357AEDB22C1F8C42F7DC224606F10901073509F051FF715D11
:203BA000042049B289B206F00FFEFFF747FF204670BD002070BD00BF1809002013B507F0CD
:203BC000B9FF044607F07EFE50B1064801A907F081FE012804D1638803F44063002BFAD089
:203BE00002B010BD010001040B2811D1082A11D181B1094B013913F8012C084801F8012FA6
:203C0000A3F12902904203F1FF33F4D1002070470120704702207047040A0020D409002075
:203C200007B5FFF715FFB8B10AF03DFA0028FBD10B4801A907F04EFEFFF70AFF0028FBD1FD
:203C400042F20242074B5B88934205D042F207401B1A5842584100E0012003B05DF804FB22
:203C600001000104D409002010B508F007F8012814D00AF018FA04460028FAD1FFF7D0FF6A
:203C800007F05EFFFFF7C4FE054B5C80054B1C71054B1C71054B1C71054B1C71012010BD8A
:203CA000D4090020E00A0020540A00206C0B0020F80B002038B50AF0D1F907F0DFFF012816
:203CC00001D1012038BDFFF7C3FE0028F9D10BF096FA012801D0002038BD144A144B517932
:203CE0005D7960F383015171124960F38305842419605D711360DC800F4B4D791A60D48073
:203D00005A7960F3830560F383020B604D71CC805A71DC8007F0C6FEFFF766FEFFF7CCFEAC
:203D20000128D8D1BDE83840FFF79EBEE00A0020540A00206C0B0020F80B002073B50C4686
:203D4000072800F28580DFE800F0040F1A1D20833868012905D1FFF7ADFF01287AD00320C1
:203D60007DE0002978D170E0A1F10B030F2B73D83C4BCCB29A7BA2426CD09C734FE0394B03
:203D800059864CE0374B198649E031F0030563D1344AC1F34004137E61F30003DBB243F053
:203DA000020364F3820303F0870365F3C7131376537E65F3C713537631E001F115031A2BBE
:203DC0004AD80C26284BF20053F836101D468C4203DC1344254A136002E016F1FF36F1D26F
:203DE00007F070FD00283AD01023ADF8043005EBC6031A79597902F03F0261F387128DF85E
:203E000006204FF000029B7901A863F3470269468DF8072007F05EFD1CE0124B1977FFF753
:203E200017FE28B9FFF746FF012898D1054600E00025FFF7F5FE012814BF03240024FFF749
:203E400013FE012818BF032445B1FFF70DFF05E0012004E0002002E0022000E0204602B02C
:203E600070BD00BFD40900201CF50000D404002073B50C46002967D0102867D8DFE800F048
:203E8000091015181B662D3135666666665B5D5F6200FFF7DDFD003018BF0120206002E05D
:203EA0002D4B9B7B2360002053E02B4B5B8EF9E7294B1B8EF6E7284B002008601A7E02F0E0
:203EC00001020A60197E01F0040101F0FF0300293ED042F0020222603BE0204B1B681B687A
:203EE000E0E71D4B93F91C30DCE7FFF7B1FD28B9FFF7E0FE012816D1064600E0002600231A
:203F0000019340F2034301A86946ADF8043007F0E1FC01280CBF9DF8025080250EB1FFF75B
:203F2000A3FE6BB201E06FF07F03236080330CBF032000200DE00B23B4E71A23B2E76FF0D2
:203F40001403AFE70523ADE7022002E0012000E0184602B070BD00BFD4090020D404002002
:203F600070B588B00446FFF773FD28B9FFF7A2FE012842D1054600E000250AF01BF80646D8
:203F80000AF091F801280AD10AF014F86FF01F039B1BC342F4D425B1FFF766FE01E010B1BE
:203FA000F9E702202CE0182102A842F601420BF017F9144B0120E4B28DF81740069307F008
:203FC0009FFD02A801A907F085FC08B901240EE0BDF80A3003F4406313B9FFF763FBF7E71E
:203FE000BDF80A40A0B2B0F5105418BF012407F099FD25B1FFF738FE01E0012000E0204694
:2040000008B070BD1E0900200B2810B51ED1082A1ED1E9B10F4A01F1080313F8010D8B4296
:2040200002F8010FF9D1FFF713FD28B9FFF742FE012809D1044600E00024FFF7F1FDFFF764
:2040400013FD0CB1FFF710FE032010BD012010BD022010BDFB09002070B5264C2648FFF7A3
:2040600001FC07F0E3FC204600218C2209F0C2FD00218C22214809F0BDFD00218C2220485E
:2040800009F0B8FD00218C221E4809F0B3FD1E4E1E4B34601C601E4C0025204629468022A9
:2040A000756009F0A7FD42F601030B22A2733922E273184A2380626107222276FF22A2769E
:2040C0007B220123E276A622637326616376227784F83730FFF7EEFD0128044607D10E48CB
:2040E00007F08AFD0D48294600F05EFE00E02C46204670BDE00A0020C0040020540A0020E1
:204100006C0B0020F80B00201009002018090020D4090020A6210020BCF500006C06002044
:204120000FB407B504AA52F8041B0448019200F035F803B05DF804EB04B070470405002062
:204140001FB5084C8DE80300114602A81A460294CDF80CD000F022F8009B00221A7004B022
:2041600010BD00BFC5E1000070B505460C46102C07D92B68686808491022984750B9103C15
:20418000F5E734B12B6868682246BDE8704002491847204670BD00BFF2F900002DE9F04F02
:2041A00080468FB0069107920026069B1B78002B00F05F83069B1C4613F8012B1AB9069BC5
:2041C0009C4203D10FE0252AF5D1F8E7069BD8F80400E51A0699D8F800302A4698470028C0
:2041E00040F02A832E442378002B00F042836378611C002B00F03D8300240A4611F8013B09
:204200002B2B11D006D8202B11D0232B12D144F00804F2E72D2B04D0302B0BD144F0100468
:20422000EBE744F00104E8E744F00604E5E744F00204E2E7A3F1310108290DD8134600253D
:204240001A4613F8011BA1F13000092811D80A2202FB0515303DF3E72A2B09D1079B01326D
:204260001D68191D002D0791B8BF44F0010400E0002513782E2B1CD15178531CA1F130003E
:2042800009280ED8194600270A780B46A2F13000092801F101010FD80A2303FB0727303F17
:2042A000F2E72A2906D1931C079A111D0791176802E013464FF0FF371A786C2A09D15A78E2
:2042C0006C2A02D144F080040AE0013344F060040BE0682A09D15A78682A03D144F0200420
:2042E000023302E0013344F040041A78642A3CD01FD8462A48D00DD8252A5AD003D8002AED
:2043000000F0B78257E0412A4AD0452A53D144F4424450E0582A31D004D8472A4BD144F413
:20432000A13448E0612A38D0632A44D144F4A06441E06E2A3AD007D8662A22D027D3672A60
:2043400028D0692A11D036E0732A2CD006D86F2A11D0702A2FD144F440742CE0752A07D0E2
:20436000782A28D144F4C85425E044F4245422E044F410641FE044F488541CE044F4B244AE
:2043800019E044F4007416E044F4844413E044F4024410E044F481340DE044F4C1340AE030
:2043A00044F4E13407E044F4806404E044F4E06401E044F4C0640133069304F4E063B3F560
:2043C000806F00F0AA8116D8B3F5807F2BD0B3F5407F7FF4EAAE079BA04914F4804F03F17B
:2043E00004029F4818BF08460DF1330107920F461A680023C5E1B3F5C06F08D0B3F5E06F9A
:2044000000F03182B3F5A06F7FF4CFAE00E2D8F80030D8F80400934901229847002840F066
:204420000B820136C1E6002FACBF24F01004012714F40053039304F0E00337D0402B17D006
:2044400008D8DBB1202B2AD1079B1A1D079293F9002017E0602B11D0802B20D1079B0733B1
:2044600023F0070303F108020792D3E900230AE0079B1A1D0792B3F9002003E0079B1A1DC5
:2044800007921A68D317002A73F1000109DA524263EB4303CDE900234FF0010933E0002226
:2044A0000023CDE900234FF000092CE0402B16D007D8CBB1202B20D1079B1A1D07921A78C0
:2044C000EEE7602B10D0802B17D1079B073323F0070303F108020792D3E90023E1E7079B30
:2044E0001A1D07921A88DBE7079B00211A1D07921B681846CDE90001D5E700220023CDE9A6
:2045000000234FF0000904F4C053B3F5805F0CD0B3F5C05F33D0B3F5006F4FD1DDE90023D8
:204520000DF1360ACDE9042304E0DDE900230DF1360A15E0DDE9042313433AD0DDE9040148
:204540000A22002308F06CFFDDE9040130320AF8012D00230A2208F063FFCDE90401E9E718
:2045600052EA030125D002F0070130310AF8011DD10841EA4371D8080A460346F0E7384B00
:2045800014F4804F0DF1360A344908BF1946DDE9002352EA03000CD002F00F00085C4FEAC1
:2045A000131E0AF8010D100940EA037002467346EFE70DF1360BCAEB0B0B03E00DF1360A02
:2045C0004FF0000B41F6080241F208035F4502EA04028CBFCBEB070700279A4202D1002F68
:2045E00008BF012741F608018A4207EB0B030DD1DDE9000150EA010208D01B4914F4804FCB
:204600001A4A4FF0020C18BF0A4602E04FF0000C62460399A1B1B9F1000F0AD104F0060170
:2046200002290AD00629124904BF4FF0010C0A4606E04FF0010C0F4A02E00F4A4FF0010C7A
:2046400063449D428CBFED1A002514F0010922D1E30613D52F444D461DE000BFCEF9000002
:2046600046F70000F0F90000E2F90000DFF90000E7F90000E5F9000033F900004046294682
:20468000CDF80CC00092FFF76FFD009ADDF80CC0002840F0D180BCF1000F0DD01146D8F8F1
:2046A00000306246D8F80400CDF800C09847DDF800C0002840F0C0803C465E44102CD8F88D
:2046C00000300DD9D8F804006C491022CDF800C09847002840F0B080103CDDF800C0EDE768
:2046E0005CB1D8F8040065492246CDF800C09847DDF800C0002840F09F80D8F80030D8F883
:20470000040051465A4666449847002840F094803E44B9F1000F79D073E0079BD3F800A085
:204720001A1D0792BAF1000F09D05346994699F800200133002AF9D1CAEB090903E0DFF844
:2047400040A14FF00609002F02DBB94528BFB9464D458CBFC9EB0505002514F0010405D19B
:2047600040462946FFF700FD002865D1D8F80030D8F8040051464A46984700285CD14E4432
:204780003EE052EA030E0ED002F00F0E10F80EE04FEA131C01F801ED4FEA121E4EEA037E5A
:2047A00072466346EDE70B467F1A01BF3022012701F1FF3301F8012C03377822BD4203F888
:2047C000012C4FF0300203F8022C88BFED1B4FF0230298BF002514F00104A3F1030903F83F
:2047E000032C04D140462946FFF7BEFC20BBD8F80030D8F8040049463A469847E0B93E4458
:2048000024B140462946FFF7AFFCA8B92E44CCE4079B012D03F104021B688CBF05F1FF35E8
:20482000002514F0010407928DF8203008D140462946FFF799FC10B14FF0FF301AE02E44E8
:20484000D8F80030D8F8040008A9012298470028F2D16F1C2CB140462946FFF785FC0028EA
:20486000EAD13E44A1E4079B1A1D1B6807921E609BE430460FB0BDE8F08F00BF02FA000070
:20488000E9F90000F8B50388064615462BB14A2B15D0002303800320F8BD174809F00CFD42
:2048A00004462CB1201DA16809F0B8FC2468F8E7124B01221A704A2333800120F8BD8829C2
:2048C000FBD10D4809F0F8FC0446002CF3D0231D9D420ED10848214609F0F8FC084B6269D1
:2048E0001F681A60A2691D460AB1E06990472F60E1E72468E9E700BF840C0020B621002055
:20490000940C002010B5064B002406481C7009F0D0FC2146BDE81040034800F045BA00BFA9
:20492000B6210020840C00200C05002070B50446E3610B4B049D1B786561A26143B1094D4F
:20494000094B2E68201D2B6009F068FC2E6000E0A1602146BDE87040044809F0CBBC00BF92
:20496000B6210020940C00200C050020840C002013B5034C24680094FFF7D8FF02B010BD1C
:20498000940C002070B5094B05461B783BB1084C084B26680430236009F049FC26602946F5
:2049A000BDE87040044809F0A5BC00BFB6210020940C00200C050020840C002010B5084B8D
:2049C00004461B781BB1043000F0B2F801E0C36003612146BDE81040024809F077BC00BF67
:2049E000B6210020840C002010B50E4C236813B90D4A136010BDFEF787F9216891E80C0080
:204A00001A44131A8A6842B192E812002144091A8B4228BF0B469268F5E71844024B186016
:204A200010BD00BF880C00208C0C0020014800F0D3B900BF1C050020F8B5038805462BB15A
:204A4000592B09D0002303800320F8BD1E4A136059232B800120F8BD872920D08229F7D190
:204A6000194F00263C68002CF2D0204609F013FC90B1E0688821224600F06AF950B9E06072
:204A8000A3680EB1B36000E03B600023A360FFF7ABFFE5E7FFF7CAFF2646A468E3E70A49D8
:204AA0000B680BB90B60D3E7D868904201D19B68F7E70B6099680029CAD0C86890420ABFDB
:204AC00089680B469960F5E7880C002010B50446FFF7ACFFE3680B4A4BB113683BB1A34273
:204AE00003D1094A1268DA6007E09B68F6E7064B1B68E36013681460A360BDE81040FFF720
:204B000073BF00BF880C0020940C0020024B1868003018BF01207047880C0020024B186803
:204B200008B1024B18687047880C00208C0C002010B50B4A04461368984206D183681360DE
:204B400008E09A68A24203D01346002BF9D103E0A2689A60FFF748FF0023A360E36010BD0C
:204B6000880C002038B5836804460D469BB10A4804600220A07304F10C0098470238012892
:204B800001D9832D05D120462146BDE8384000F005B80123A37338BD940C00202DE9F843DE
:204BA0001C4A0446156889462B4690461A4E3768A34204D00BB11B68FAE7BDE8F88334B3CB
:204BC000A37BABB10023A37345B1AC4204D028468721224609F045FB2D68F5E7A3683BB14B
:204BE0004C4505D0346004F10C0083212A469847D8F800309C4203D12268064B05E01346FC
:204C000023B11A68A242FAD122681A603760BDE8F88300BF980C0020940C002010B5094B78
:204C200000221A70084B1C685CB1E37B3BB101230022A373E27320468221FFF793FF2468CC
:204C4000F2E710BDBB210020980C0020024B1878421C1A70704700BFBC210020064B8A22B9
:204C60001A70064A00231370054A1370054A1360054A1360704700BFBC210020B7210020F3
:204C8000B9210020980C0020940C00202DE9F041214E33780BB1FFF7C1FF204D2C78002C86
:204CA00034D0DFF88CE00C229EF800301C495A4388181C4F895CDFF87C804268DFF878C03B
:204CC0008068013303F01F03013C3970C8F80020CCF800008EF800302C7088B9124C134BCA
:204CE0001B68236023688BB133780BB1FFF796FF20683978D8F8002009F0B3FA2368EFE7C5
:204D0000812904BF0123837309F0ABFA337828781844BDE8F08100BFBB210020B9210020FC
:204D20009C0C0020B8210020900C0020980C0020B72100201C0E0020200E0020024A034B08
:204D400010781B7818447047B9210020BB210020F0B50C4E3478202C11D00B4B0B4D1B7816
:204D60000B4F234403F01F032B700C256B430134FD18A860F9546A6034700020F0BD0120E8
:204D8000F0BD00BFB9210020B7210020BA2100209C0C002038B5034C256809F062FA25604F
:204DA00038BD00BF940C002010B50A4609490C68234683420DD00BB11B68FAE748B104601C
:204DC00008600121817383818121BDE81040FFF7E1BF10BD980C002038B1837B013B012B44
:204DE0009FBF024A0123C37313707047BB210020024610B5064853600468029B11609360FE
:204E0000026014B9084609F0D1F8002010BD00BF240E002010B5084C206858B10023236005
:204E2000816843689847236823B1BDE81040186809F0BCB810BD00BF240E002038B5058866
:204E40000446672D09D0792D2ED0002D32D1FFF7FDFE1B4B18701B4B1D601B4809F0D0FADF
:204E6000431C01D167231DE00A28164B07D01A687E2AF2DC511C1960144B9854EDE7196892
:204E800000254A1C1A60114A0D4B555428461978FFF75EFF0E4B852118682A46FFF758FF23
:204EA00020B97923238009E0852907D1054B00221A60D2E700230380032038BD012038BDF2
:204EC00069300020300E0020280E00203D220020940C002008B505480549802209F089FAB0
:204EE000BDE8084003480021FFF75EBF280E0020BD2100202C0500200C4AB82303FB002250
:204F0000002330B553821A46094CE1188D782DB11C5D844202BF00248C70013240F24C5101
:204F200071338B42F0D1104630BD00BF500E0020C822002008B5064803F01EF8054B01222E
:204F40001A7000225A70AA229A70DA7008BD00BF9D510000BE22002010B50F4C0220A179ED
:204F600005F032FCA379112B01D0062B05D1238D618D9942A8BF194608E03A2B05BF94F802
:204F8000281094F82930002143EA01210120BDE8104005F019BC00BF7429002010B51378D8
:204FA0000446087A83F0020398421DD1487A5378984219D1887A9378984215D1C87AD3783A
:204FC000984211D1087B137998420DD1487B5379984209D1887B9379984205D1C87BD379BD
:204FE000984201D103201BE00B890F4A6BB94B89B3F57F4F09D18B89FE2B06D11368C989D1
:20500000022023F8021B13600AE0136851F8080F083343F8080C486843F8040C13600120E5
:20502000A040C0B210BD00BF3C0E002010B5084C01462378012B08D1A01C082208F0CEFC80
:2050400000280CBF2046002010BD002010BD00BFBE22002008B50146102005F0C3FB044B28
:2050600004489B6800219847BDE80840FDF744BF18F600007950000010B508460C4611466A
:2050800002F04AFA044B1B6813B19B6820469847024B1C6010BD00BF4C0E0020480E0020B7
:2050A000F8B505460023114A712404FB0324A278B2B9617005F0D8FA26460D4F0D4A3B78D0
:2050C00006F8035BC01A1568A0701D4405F0CCFA3A782946821A304608F0B2FCA078F8BD4B
:2050E00001330C2BDFD14FF0FF30F8BDC822002014280020400E00202DE9F8434FEA1219E9
:20510000B9F10F0F80461D4602F00F040BD00F2C05D1B9F1000F0AD11024274619E0B9F1D5
:20512000000F09D004E00F2C4FF0100900D1102440464A4608F084FC09EB04020F2A2746DD
:2051400006DC08EB09000021C2F1100208F052FDBCB1114DC7F110002E68404431462246B8
:2051600008F06EFC022C08D1B9F10A0F9FBFFF2388F80B30FE2388F80C3034442C60BDE842
:20518000F883B9F1000F05D040462946BDE8F84309F09DB9BDE8F8833C0E00202DE9F04F03
:2051A000904F914E002387B03B703370044605F0A9FA05F045FA8D4D04212860092005F0CE
:2051C00003FB8B4B8DE8C0001B68A9460BB1FFF7C3FE04A80CB9874900E0214609F0E5FE7D
:2051E000854B864E1A8803933E2A40F20182D9F800B0834D0BF102032B60009B06F118002F
:2052000093F80080002308F102080BF80830FFF70DFF20B906F10800FFF708FF20B10BF17E
:2052200003032B60802400E0044672783178130943EA0113DBB2980840EA8313DBB212F0A3
:205240000F0FDEB26E4F01F00F010CD16B48408848B911B912F0F00F1FD03B6803F8016BC5
:205260003B6070261AE079B912F0F00F0CD1296823F03F031A43634B0A701B88033121F898
:20528000023C6826296009E05C4A2B681068186003F8046B2B60602600E07826574B9A79F9
:2052A0000293112A08BF46F0040673075EBF3B6803F8012B3B60029BDB79402B06D0FF2BBF
:2052C00007D0012B08D146F0010609E046F0020606E046F0030603E03A6802F8013B3A6014
:2052E000029A464B128982B95A8972B99A8962B9DA8952B91A8A42B95A8A32B99A8A22B984
:20530000DB8A13B944F0400013E03F48FFF78EFE3E4B186078B142781BF80830042043EA6C
:2053200002130BF808303849394AFFF737FE60F03F00C4B227E0029B30491A8948F2FE03EE
:205340009A420CD14B8B53B98B8B43B9CB8B33B9042008312E4AFFF721FE2043E9E73A689F
:20536000DFF8A4C096460CF1100A634603CB5345CEF80000CEF804109C460EF1080EF4D194
:205380001F4B10321A60DFF874A09AF81830FF2B40F08A809AF8192044F0080E022A5FFA24
:2053A0008EFE37D1BAF81A30A3BBBAF81C308BBBBAF81E3073BBBAF820305BBBBAF8223071
:2053C00043BBBAF824302BBB9AF8263013BB3B689AF8272044F00B0003F8012BC4B23B603A
:2053E0009FE000BFBD22002014280020400E00204C0E00209DFA000060290020742900202F
:205400003C0E0020762900207C290020340E00206C2900209B4B588B194688BB988B78BBC6
:20542000D88BA8B9188C98B9588C88B993F8240070B9296844F00A00C4B2084600F8012BFF
:2054400033F8252F043121F8032C9B78837015E0C98B8C4BA1B9198C91B993F8221079B9F2
:20546000296844F00900C4B2084600F8012B53F8232F063141F8052C1B790371296050E077
:20548000814ADFF818C214680CF110082746634603CB4345386079609C4607F10807F6D172
:2054A0001034146074463CE00AF11800FFF7BEFD764B186050B143781BF8081044F004043E
:2054C0000B43E4B20BF8083000200EE048F2FE03BAF818209A4210D1BAF81A306BB9BAF8EB
:2054E0001C3053B9BAF81E303BB90AF1180104AAFFF754FD2043C4B213E0634ADFF89CC1AA
:2055000017680CF11008BE46634603CB4345CEF80000CEF804109C460EF1080EF4D1103751
:205520001760019A5749282313708B79112B53D14FF2B0030A8D52BA92B222F00F0080B259
:20554000984217D14B8D5BBA23F00F031B041B0C83420FD12868F32303704B8D02301A0A45
:205560000B8D1B0A02EB031303F5AA6300F8013C286028E0029B43495B8D5BBA03F47F43C2
:20558000B3F5704F09D12B68F1221A700A8DA3F801204A8D120ADA700CE002F47F42B2F5C0
:2055A000704F2B6808D1F2221A700A8D120A5A704A8D5A80043305E0F0221A70886A053312
:2055C00043F8040C2B60324B1A882B6823F8022B019A2B6030231370009BD9F800201B78E0
:2055E000D65413445C70284B1B689B1A009A1AE0D9F8002041231370009B06F128051C78F4
:20560000631CDBB21344324603CAAA4218605960164603F10803F6D1009B29341C70019B83
:20562000019A1B782833102013700DEB000105F0D9F8184BDFF868801B68984730EA2000B1
:2056400028BF1520039BC0F17D051C88019BDFF854A01E78009BA21B93F800B00E4FCBEB16
:2056600005039A4240F3CD80C0F17803019305F0E3F8019B94FBF3F40134A04214DC0020FD
:20568000D1E000BF742900203C0E0020340E0020A2290020ECF50000142800208C29002014
:2056A00060290020BD220020D9F800B05F4B3C7800221A60594622460BF10400039308F032
:2056C00035FAB8F800205A496FEA82426FEA9242C2F307228BF80020B8F8002004348BF8D2
:2056E00001200A88E4B2501C0880110ADFF850C18BF802102D1B9AF8001025F007054D4E2F
:2057000061448BF803200BEB04002A46CDF808C03C70356008F094F9281980B204F08AFF91
:2057200005F090F8039B04461D460028A7D00DF1100B5846FFF78EFC204605F0BBF8204657
:2057400005F0A2F82B68012B99D0043B012B96D99AF800A0336853441FFA83FA05233B70EB
:20576000354B1A68B8F800306FEAC3436FEAD343C3F307231370B8F800305370019B23F0C4
:20578000070737602D4B1B889A454BD2D9F800204FEADA0111713268CAEB03039342B8BF25
:2057A000244AD9F80000B8BF1360009B376893F80080029B3A4603EB0A01404408F040F9B0
:2057C00008EB070080B204F035FF05F03BF8074600283FF454AF5846FFF73CFC384605F063
:2057E00069F8384605F050F8124B1B689A442B681FFA8AFA012B3FF442AF043B012BC1D84B
:205800003DE7D9F800000E495844314408F018F9B8F800005844801B80B204F00BFF04A85F
:20582000FFF718FC012007B0BDE8F08F480E0020EA1C0020440E0020400E0020602900203D
:20584000742900202DE9F047074688461646002A47D0434C0025A146238ABB4215D1638A6E
:205860009BB10F2004F0CAFF0146204609F0A2FB58B1ECB220463146FFF712FC002827DAFC
:205880000027DFF8E0A0B8460DE0B834002D5DD10125E1E7A8450BD10AF1B80AB8F1000F2C
:2058A00010D14FF001083AF8063C002BF4D0F1E7504608F0F0FC0028EED04046FFF71CFB91
:2058C0000744E9E7002F41DD20463146FFF7E8FB00283BDDB82303FB0595AB8A1844A8823C
:2058E0003AE0204DFF2435F8063C4FFA84F97BB3284608F0D0FC10B13046FFF7FDFAB9F19B
:20590000FF3F03D135F8063C03B9F4B2012E05F1B80501D00126E6E765B26B1C16D0B8239E
:205920005D43DFF83C900F2009EB0506A6F81280378204F063FF0146304609F036FB05F1DA
:2059400018004844402108F094FC05E0FF2403E0B9F1FF3FDAD1D8E760B2BDE8F08700BF90
:20596000500E0020680E00202DE9F04FA44CDFF8C8A287B000268AF80060267004F060FE66
:20598000A04DA0462860042004F026FF9E4B2A6800B218605778137847EA032703F0F80327
:2059A000C02B02D0E02B19D03AE090782378D278C7F30A07043342EA002039463246237057
:2059C000FFF740FFB0F1FF3F814600F07F828F4CB82303FB00440126223424E01379D178AD
:2059E00090782278C7F30A070532227041EA00201A4639460093FFF725FFB0F1FF3F8146F4
:205A000000F064828149B82202FB0012958A4FF0010BBD4234BF002501253446009BE0E180
:205A2000B1464F467A4C296898F800504A5D02F0E003602B40F0B781A81C084429444D78F2
:205A4000744B5FFA85FC1CF0800F18601CBF0130186012F0100F02F0080130D1D1B91968EE
:205A600031F8010FA4F801008978E170196811F8040B1960830803F00F0141F0600121703B
:205A8000617803F0300343EA801301F00F010B43637030E018686021864621701EF8011B85
:205AA00003304FEA910B0BF0300B01F00F014BEA01016170BEF80010186061801BE001F094
:205AC000FF0E99B919680878C0F3830040F06000207011F801BBA4F802E04FEA9B0000F009
:205AE000300040EA8B106070196004E06023237000236370638002F0040303F0FF01009118
:205B00002BB944490B6813F8010BA0710B6012F003020BBF3F4A404B13689B5C09BF13F8E4
:205B2000011BE3711360E1716B06C5F3011233D51CF0800F1DBF334998F8003009680021A7
:205B40001EBF5B189978090922B904F1080B9AB9114614E0314B1878012805D158788842AC
:205B60000CBF1946002100E000212D4B19600029EBD1B3460D4633E1294B19680231294B07
:205B80000F209A5C0391CDF808C0019204F036FE0399034658460BE0234B0F209A5CCDF83E
:205BA00008C0019204F02AFE2049034604F10800019AFFF7A1FA05F00800DDF808C005F004
:205BC000030200F0FF0105F00403002836D0002B6CD1174B1B88ADF81430531E012B9FBF55
:205BE0000C490B6813F8010B0B60124B98BF8DF815009A5C04F1180005A9002354E000BF46
:205C000014280020400E0020380E0020500E0020742900203C0E00203DFA0000BE22002078
:205C2000340E002056FA000041FA000045FA00003BFA000047FA0000BD22002053B31CF0B1
:205C4000800F1DBFA34998F8003009680B4618BF5B18A14918BF9D78087818BF05F00F03ED
:205C6000012805D14D789D420CBF0D46002500E000259A4B1D60002D00F0AE80984B102079
:205C80009A5C019204F0BAFDA91C0346019A04F1180009E0934B10209D5C04F0AFFD2A461A
:205CA0009149034604F11800FFF726FA9AF800008E4900F128038AF80030009B002B53D07E
:205CC0000B681A7802F0F802F02A4DD11122A2711A7802F0040502F0F302F03AEDB2032AEB
:205CE0007CD8DFE802F0020A1622B3F801200533228533F8022C62852CE0B3F801202285E9
:205D0000DA78A2F5805292B2120242F0F002628509E05A78A2F5805292B2120242F0F002C5
:205D200022855A886285043314E05A7802331209A2F5756292B2120242F0F002228513F80A
:205D4000012C02F00F02A2F5756292B2120242F0F00262850B6025B90B6833F8022BE285C7
:205D60000B6030308AF800005A4A0B6812689B1A88F8003067B904F077FC5D4B1B78C01A44
:205D80009AF800301844283803122371607104E0A7F128031A1222716371A379112B1DD18B
:205DA000A388A3851AE0412A40F090806A1CD2B28B18224603F1280153F8040B8B4242F858
:205DC000040BF9D105F1290388F800309AF8003028338AF8003001E0B34601E0B346002570
:205DE0002B46009304F040FC98F8002082426DD804F03AFC3E4A009B12789AF800A0DB00D2
:205E00009BB2C2EB000853443A4943448C2BC1F800805BD83CB12F4B04EB0A001968114486
:205E2000424607F00DFE002F39D056B132484FFA89F3B82404FB030308EB0A0189B2998225
:205E4000198495B3B8224FFA89F402FB04F32A492A48CA18114697822231128C07F0F0FDBD
:205E6000274D05F24C5615F8012C5AB115F8033CA34207D115F8020C204B294603EBC00024
:205E800007F0DEFD7135B542EDD15FFA89F0FFF733F8BBF1000F0BD01A4B1F800CE0BBF1B0
:205EA000000F05D0002DF7D110E0BBF1000F0DD1144BD044A3F80080134C236823B1FFF73E
:205EC0004BF823685B68984702F096F807B0BDE8F08F00BF400E0020BE220020340E002068
:205EE00056FA000041FA000045FA00003C0E002014280020440E0020500E00207429002065
:205F0000CB220020602900204C0E002037B5124B124D1C782B796A79C4EB032313449BB215
:205F2000ADF80630BDF8063005F108011844202280B208F075FABDF8062004F128012944FF
:205F400092B208F06DFA10B140BA80B201E04FF6FF7003B030BD00BF1528002074290020A3
:205F600028492DE9F04188460D78274E2835AB195C782648E400073402239C423DDBE91803
:205F80007218715C204F012932D002D3632902D013E001332FE0037018461C4C02F08AFDF4
:205FA000D8B998F800302278283313443B445B78134402332370BDE8F08101F0C001802962
:205FC00005D0C02905D0402912D1037005E0037006E03A7E0370FF2A02D10120BDE8F081D3
:205FE00004200221EA1801F007FE0220BDE8F081527802321344DBB2BFE703700020BDE86A
:20600000F08100BF15280020742900201B280020F0B5C578124A0D44EDB2D57083780F0A4C
:206020003B44DBB293704478BB4254700678167005D2601CC0B2507008B901361670C9B252
:206040008D420CDA0133DBB2054993703BB94B780133DBB24B7013B90B7801330B70F0BD9B
:206060006829002010B5084C014620681430FFF7CFFF064A236811781975517859759178ED
:20608000D2789975DA7510BD102A00206829002008B501F05BF901F099FE08F04FFA002393
:2060A0001149002221F813200133DBB2142BF7D10E49302303FB02110132D2B200230A2A87
:2060C00081F82530F4D10A4A4FF480611180094A002102EB43120133DBB20A2B1182F6D11E
:2060E000054A137008BD00BFFC2B0020142A0020EE1C0020282C00201C2800202DE9F0415C
:20610000124F3D7805B3DFF84C8005F12703B8F80040A34203DB0023A8F8003013E00C4EFB
:20612000A4F1280205F12801641BA4B206F128003144521B07F0FAFCA8F80040283C231245
:206140003371747100233B70BDE8F08115280020742900206029002030B50A490023142B75
:206160000DD0094C5A1C34F81350D2B2854204D100220B7024F8132030BD1346EFE70B7045
:2061800030BD00BF1C280020FC2B002030B509490023142B0BD0084C5A1C34F81350D2B257
:2061A0001DB90B7024F8130030BD1346F1E70B7030BD00BF1C280020FC2B00202DE9F74F13
:2061C000A44E04283468B346A34F00F06782A349A34DA44A03280D6015608A4615D194F828
:2061E000253003F00F03032B08D1A38B002B40F0BB869D4B08221A7000F0A7BD022B40F027
:20620000B386002305F8073CCFE302287AD1974A00231370964A3B801380964AD3780133A7
:20622000DBB2D37063B993780133DBB293703BB953780133DBB2537013B913780133137052
:2062400094F8253003F0FD02052A0DD194F826300133DBB2782B84F8263040F085860023E8
:2062600084F8253000F080BE002B00F07D86A28B7D48002A3DD094F82620511E84F82610E5
:20628000002A40F0718694F82720082A04D0591E01290AD8052A08D1002384F825308023B2
:2062A000037002F02BF800F05EBD042A9CBF0321914003F00F0394BFC9B230210132013B3A
:2062C00084F8261084F82720072B00F24D86DFE813F0680308000A0003054B0603054B0659
:2062E000030500225EE30423037002F007F800F06BBD03F00F03032B40F0368608230370D3
:2063000000F023BD052811D15B4B1B681B8A002B00F02A860C3D1560554A0023138033605F
:206320003B80514B08220D601A70B5E115F83C3C3C3D03F0F003602B40F016862B796A798D
:206340001B0239889818884200F30E86283213443B802B7AFF2B00F00786484EAB1D3360B5
:20636000474C424B00221A702270AA799846BAB901232370FFF7F4FD012800F0F58503D344
:20638000022800F0ED850BE098F8003003F128022A4432605278083303EBC20388F8003040
:2063A000384800F06FFE002840F0B280354800F00FFF002840F0AC802A7E334BFF2A65D0F3
:2063C00048F2FE00198B814260D0198981425DD079B9598969B9998959B9D98949B91B8AE9
:2063E0003BB9698A284B21B9998A11B9DB8A002B4CD0298B244B79B9598B69B9998B59B93F
:20640000D98B49B9198C39B9598C29B9998C19B9DB8CB3F5807F39D03B88B3F5A06F04D953
:20642000022000214FF4A06206E0EB79164C012B06D800210A46032001F0DEFB00F090BD83
:2064400002F0C2FB002840F08F85E379013BE37100F086BD102A0020602900200C2A0020A9
:20646000B029002064290020002A002015280020242C002017280020082A0020042A002060
:20648000162800208C2900207429002048F2FE032989994240F06885298B9D4B81B9598B6D
:2064A00071B9998B61B9D98B51B9198C41B9598C31B9998C21B9DB8CB3F5807F00F05485C2
:2064C000FF2A00F05185934800F0BCFD0246002840F04A8501200221AEE720D93A2B70D063
:2064E00025D93B2B00F040853C2B66D123788A49980735D5580660D443F040030B70FFF755
:206500002FFD012800F030852DD3022800F028853268DFF8309213782B2BDED130E0062BB6
:2065200000F01281112B6DD0002B46D103E02C2B00F01A8541E02378D9073ED4764A43F0B3
:2065400001031370FFF70CFD012800F00D85DCD298F8003003F128022A44C9F8002008E047
:2065600043F00203CAE798F8003003F128022A4432605278083303EBC20388F80030C7E73E
:20658000237803F0040000F0FF01B0B9624A43F00403137098F8002002F128032B44D8781A
:2065A00010B104202A3247E7C9F800305B78083202EBC302594B1A70AAE704200121521B4A
:2065C0003AE707F049FF4FF6FF73984240F0CC8498F800302833E85C01F0FAFC98F8003044
:2065E0002833EA18E85C517801F0E4FA012801BF00234A4A3B8013703B88002B00F0B4846E
:2066000000F0AEBCFFF77AFD3B88454E303B3B80EB8DCAF8006063B9B5F82A80B8F1000F72
:2066200000F0A2843F4B404D2B60394BB3F828900BE007F017FF4FF6FF73984240F09484EA
:20664000EAE7238A3BB920342C602C68374B9C42F7D300F089BC9845F5D1638A0BB19945CB
:20666000F1D123682BB963681BB9A3680BB9E36833B12F482146102207F0B0F90028E2D1C1
:206680002C4A022111702C4A002316602B4ACBF80030CAF80060138001F030FE274B1A8881
:2066A000002A00F0618402F13003194C9BB23B80283B191263711C4B08321B6852BA217124
:2066C000197DA2850022E2851A8AE17122855A8A11216285A17104F118050FCB85E80F0060
:2066E00004F10800294600F0D3FD154B04F13C021A6007F0B7FEC04380B208B1E08502E080
:206700004FF6FF73E38502F073FB00F023BC00BF742900208C29002016280020152800201F
:20672000A4290020282C0020082A0020682D00207C290020002A002064290020242C0020C5
:206740000C2A0020042A0020FFF7D8FC07F087FE4FF6FF73984240F007846B8D002B00F0F0
:206760000384C24AB2F828C0BCF1000F00F0FC83BF4E344696F82590B9F1000F11D0328AA9
:206780009A420ED1728A62450BD1BA48314610228DE8081007F022F99DE80810002800F0C0
:2067A0001A81B54A30369642E4D195F8352002F03F02022A12D1B149B14E88460B800022B4
:2067C000142A0AD0AF4931F8121001328B42D2B2F6D100223270914657E0327095F83520BD
:2067E000A24B500700F1C083142283F835203C223A80502283F8342093F8332093F83140E8
:2068000093F82F0083F82F2093F8322093F82E109B4E83F82E2093F82D2083F82D4093F851
:206820002C400130347093F83060C0B283F8321083F8312083F82C6083F8304083F8330061
:2068400060B90131C9B283F8321039B90132D2B283F8312012B9621C83F830202B8D874AA3
:20686000894C13806A8D6B852A85A4F1100595E80F0084E80F002846214600F009FD54E367
:20688000BEF1070F10D00132D2B20A2A19D0302101FB024101F1200090F805E0BEF1000FB2
:2068A000EED132700C4611E0B9F1000F04D0807999F826108842E6D94FF0300909FB024997
:2068C000E1E74C463270002C00F04E8303222382684B84F8262084F82420042284F82320EB
:2068E0000FCB84E80F00694B01201A784FF0000922765A78A4F812C062769A78DB78A27667
:20690000E37695F82C3084F82500237595F82D30A083637595F82E30CBF80040A37595F884
